:020000040800F2
:1000000098FF0120B105000821040008230400081E
:100010002504000827040008290400080000000047
:100020000000000000000000000000002B04000899
:100030002D040008000000002F040008310400080F
:10004000CB050008CB050008CB050008CB05000850
:10005000CB050008CB050008A9260008CB05000841
:10006000CB050008DD260008CB050008CB050008FD
:10007000CB050008CB050008CB050008CB05000820
:10008000CB050008CB050008CB050008CB05000810
:10009000CB050008CB050008CB050008CB05000800
:1000A000CB050008CB050008CB050008CB050008F0
:1000B000CB050008CB050008CB050008CB050008E0
:1000C000CB050008CB050008CB050008CB050008D0
:1000D000CB050008C9170008CB0500089D1A0008C9
:1000E000CB050008CB050008CB050008CB050008B0
:1000F000CB050008CB050008CB050008CB050008A0
:10010000CB050008CB050008CB050008CB0500088F
:10011000CB050008CB050008CB050008CB0500087F
:10012000CB050008CB050008CB050008CB0500086F
:10013000CB050008CB050008CB050008CB0500085F
:10014000CB050008CB050008CB050008CB0500084F
:10015000CB050008CB050008CB050008CB0500083F
:10016000CB050008CB050008CB050008CB0500082F
:10017000CB050008CB050008CB050008CB0500081F
:10018000CB050008CB05000800F002F800F03CF8B1
:100190000AA090E8000C82448344AAF10107DA45E2
:1001A00001D100F031F8AFF2090EBAE80F0013F0F8
:1001B000010F18BFFB1A43F0010318476C31000010
:1001C0008C310000103A24BF78C878C1FAD85207A1
:1001D00024BF30C830C144BF04680C6070470000C1
:1001E0000023002400250026103A28BF78C1FBD840
:1001F000520728BF30C148BF0B6070471FB503F0DE
:100200007AF81FBD10B510BD02F067FC1146FFF76C
:10021000F5FF00F009F802F085FC03B4FFF7F2FFE8
:1002200003BC01F073FA0000A82001F013FA02F0F9
:10023000DFFA01F0FDFA4FF47A74204601F04BFA30
:1002400002F0B6FA4FF4A06000F0D2F902F05FFAC3
:100250004FF4E12001F0B6FC4FF4E13001F05EFA1A
:10026000624DDFF88CA1DFF88CB1634F0026634844
:100270000078012831D12878012823D160482E70D8
:1002800032210088C01CB0FBF1F201FB12000928EA
:1002900018D301F025FD5D4B5B49DFF868C11A8872
:1002A000002001EBC21100BF0CEB800898ED000AA2
:1002B00001EB8008401C80B288ED000A2028F3D3AF
:1002C000521C1A8051480088B0F5CD7F05D15048A6
:1002D000006810B94C4801F07EFF4E4800780128B4
:1002E000C5D128780128C2D12E7001F0F9FC45480B
:1002F00001F0D4FD39880246B1FBF4F004FB101381
:1003000050460AF80320B1FBF4F204FB1212042950
:100310001AF802208BF800205ED9B1FBF4F304FB3D
:10032000131310F803C04B1E93FBF4F804FB1838AA
:1003300010F80880C4454FD193FBF4FC04FB1C3338
:1003400010F803C08B1E93FBF4F804FB183810F868
:100350000880C44540D193FBF4FC04FB1C3310F827
:1003600003C0CB1E93FBF4F804FB183810F8088088
:10037000C44531D193FBF4FC04FB1C3310F803C0DB
:100380000B1F93FBF4F8994604FB1833C35C9C45A0
:1003900022D199FBF4F3491F91FBF4FC04FB139366
:1003A00004FB1C11C35C1AF80100834214D1062A15
:1003B00012D2DFE802F0030507090B0D4E2108E019
:1003C000502106E0522104E0542102E0422100E0E5
:1003D0003021114801F06EF83888A0F58071993904
:1003E0007FF445AF0D48C0F8A46240E7310000201B
:1003F00074000020000000203E0000204900002082
:100400003A00002050A7002038220120520000208E
:100410004C0000204A0000200010014000804242B1
:100420007047FEE7FEE7FEE7FEE77047704770475C
:10043000704700000CB500205449019000900A68F4
:1004400042F480320A604FF4A0430A6802F400329A
:100450000092019A521C0192009A12B9019A9A4292
:10046000F3D10A68920334D5012000904748403008
:10047000026842F0805202604548026842F44042FD
:1004800002604248083002680260026842F400429A
:100490000260026842F4A0520260031F3D4A1A60E3
:1004A0000A6842F080720A600A689201FCD53A4AF2
:1004B00040F205711160016821F0030101600168DB
:1004C00041F0020101600168C1F381010229FAD102
:1004D0000CBD00900CBD314810B5016841F47001AD
:1004E00001602A48016841F001010160274A0021AA
:1004F0000832116002682A4B1A400260031D294A23
:100500001A60026822F48022026020480C300160E8
:10051000FFF790FF21494FF000608039086010BD5F
:1005200070B51A4C083420681F4A10F00C011F489F
:1005300004D05510042903D0082903D002601BE021
:10054000056019E01149091D0B68C3F380560B685B
:1005500003F03F0316B1B5FBF3F201E0B2FBF3F297
:100560000B680968C3F388135A43C1F30141491C5E
:100570004900B2FBF1F1016021680C4AC1F303119B
:10058000121D515C0268CA40026070BD0038024012
:100590000070004008544007003C024088ED00E035
:1005A000FFFFF6FE103000240024F40004000020B9
:1005B0000948804709480047FEE7FEE7FEE7FEE7F7
:1005C000FEE7FEE7FEE7FEE7FEE7FEE70448054933
:1005D000054A064B70470000D7040008890100084F
:1005E00098EF012098FF012098F7012098F701204B
:1005F0002849084328490860704730B50F22C4785D
:1006000001780123FCB1244C246801F1E02104F4B9
:10061000E064C4F5E064C4F30724C4F10405E240D7
:100620004478AC408578154025432A0181F80024A0
:10063000007800F01F018B404009800000F1E020AD
:10064000C0F8003130BD01F01F0083404809800030
:1006500000F1E020C0F8803130BD104A1140014364
:100660000D48001F016070470B4A121D00291168D8
:1006700001D0014300E08143116070474FF0E02159
:100680000428086903D020F004000861704740F096
:100690000400FAE70000FA050CED00E080FFFF1F00
:1006A000354900200860091D0860091D0860091D02
:1006B00008603149314814310860704730B52E491F
:1006C0008379026853B30B6893430B600A1D136868
:1006D0000468A343136002790A441368046823433F
:1006E0001360254A083213680468A3431360131D7E
:1006F0001C680568AC431C604479102C05D021446B
:100700000A68006802430A6030BD1168046821432A
:100710001160196800680143196030BD0079084410
:1007200001689143016030BD0021016001710C221C
:10073000427181717047104910310A6802430A60A2
:10074000704701460C4A0020143212680A4200D059
:100750000120704708491431086070470146064A75
:100760000020143212680A4200D00120704702496A
:100770001431086070470000003C0140FFFF7F001B
:100780008100A1F1C04148B143F2D200C1F800009C
:100790006FF070404860C1F8040170474FF020428C
:1007A00043F2DB001060F3E710B5D0E9011211430A
:1007B000D0E903231A43114342691143826911436B
:1007C000C2691143026A1143426A1143826A1143AA
:1007D000C26A1143026B114302689200A2F1C04247
:1007E00011608168082907D101688900A1F1C04121
:1007F0000A6842F040020A60416BD1E9002342EAF4
:1008000003128B688C891B0243EA04431A430B8A48
:1008100042EA03520B7D896942EA03620A43016896
:100820008900A1F1C0414A60C16AB1F5804F08D08A
:1008300000686FF070418000A0F1C040C0F8041162
:1008400010BD816BD1E9002342EA03128B680C8A48
:100850001B0243EA04531A430B7D896942EA03628F
:1008600000680A438000A0F1C040C0F8042110BD18
:1008700000210222C0E900128160C1600161416172
:100880008161D202C161C0E908125200C0E90A21A7
:100890000163CB494163816370478000A0F1C04090
:1008A0000029016802D041F0010101E0C54A114070
:1008B0000160704710B5182440234FF020414FF0DD
:1008C000FC32102805D041F8804F4B608A60CA6026
:1008D00010BD0C664B668A66CA6610BD30B5D0E99D
:1008E00001121143D0E903231A431143426941EA3B
:1008F0004221826941EA4231C26941F00804D2E9E9
:10090000001341EA03211389127B1B0443EA0262AC
:10091000036A1143D3E9002542EA05221D891B7BA6
:100920002D0445EA03631A4303684FF02040102B5F
:1009300004D040F8804F8160C26030BD046681669B
:10094000C26630BD10210160002141608160C1603C
:10095000016141618161C269FC211160C26951601C
:10096000C2699160C269D160026A1160026A516015
:10097000026A9160006AC16070474FF0204251B135
:10098000102804D052F8800F40F004000AE0106EE6
:1009900040F004000AE08B49C91E102804D052F828
:1009A000800F084010607047106E08401066704756
:1009B0004FF0204251B1102804D052F8800F40F07F
:1009C00040000AE0106E40F040000AE07D493F39E7
:1009D000102804D052F8800F084010607047106E45
:1009E0000840106670474FF02041102802D0D1F81F
:1009F00094007047486F70474FF02040182140F82E
:100A0000A01F002141604FF0FC318160C160016195
:100A1000704710B5D0E9001241EA422281681023E4
:100A200043EA41310A434FF0204141F8A02FC26808
:100A3000D2E9003443EA04231489127B240444EAF3
:100A4000026213438B600269D2E9003443EA042353
:100A50001489127B240444EA02621343CB60406988
:100A6000D0E9002342EA03220389007B1B0443EA06
:100A7000006002430A6110BD002101604160816095
:100A8000C268FC211160C2685160C2689160C2688E
:100A9000D160026911600269516002699160026966
:100AA000D160426911604269516042699160406958
:100AB000C16070474FF02041002851F8A00F02D0CC
:100AC00040F0040002E03F4AD21E10400860704728
:100AD00010B54FF480744FF0204372B1102804D049
:100AE000A04205D153F8840F04E0586E08430DE08E
:100AF00053F8A40F0843186010BD102804D0A0427A
:100B000006D153F8840F05E0586E8843586610BD2F
:100B100053F8A40F8843EEE7034600204FF020422D
:100B2000102B08D0B3F5807F07D0D2F8A4200A425A
:100B300000D001207047526EF9E7D2F88420F6E722
:100B40004FF02042102807D0B0F5807F08D052F82F
:100B5000A40F884310607047506E884350667047FA
:100B600052F8840FF5E7034600204FF02042102B87
:100B70000CD0B3F5807F0BD0D2F8A4200A4202EA51
:100B8000D10102D0002900D001207047526EF5E754
:100B9000D2F88420F2E74FF02042102808D0B0F5B8
:100BA000807F0AD052F8A40F20EAD100106070476D
:100BB000506E20EAD1005066704752F8840FF3E778
:100BC0000C330008FEFF0F00824910B5884206D1A1
:100BD0000121084600F0AFFA002101205BE07E49C8
:100BE000884206D10121022000F0A5FA002102204E
:100BF00051E07A49884206D10121042000F09BFA95
:100C00000021042047E07649884206D101210820CE
:100C100000F091FA002108203DE07249884206D197
:100C20000121102000F087FA0021102033E06E49E6
:100C3000884206D10121202000F07DFA00212020E9
:100C400029E06A49884206D10121402000F073FA68
:100C5000002140201FE06649884206D10121802002
:100C600000F069FA0021802015E06249884202D133
:100C7000012184150AE06049884202D1012144150E
:100C800004E05E4988420AD101210415204600F0A3
:100C900052FA00212046BDE8104000F04CBA10BDC9
:100CA000F0B50023012403270D6804FA03F2154070
:100CB000954242D1D0F800C05E0007FA06F52CEA52
:100CC000050CC0F800C091F804C0D0F800E00CFAA0
:100CD00006FC4CEA0E0CC0F800C091F804C0BCF150
:100CE000010F02D0BCF1020F1FD1D0F808C02CEACE
:100CF000050CC0F808C091F805C0D0F808E00CFA5F
:100D000006FC4CEA0E0CC0F808C0D0F804C02CEA6F
:100D1000020CC0F804C0426891F806C00CFA03FC4B
:100D20001FFA8CFC42EA0C024260C268AA43C2600D
:100D3000CA79C568B2402A43C2605B1C102BB3D38A
:100D4000F0BD4FF6FF7101600021017141718171A9
:100D5000C171704708B541F480320092C261C1612F
:100D60000099C161C169C069009008BD02460020B8
:100D700012690A4200D001207047006980B27047B2
:100D80000246002052690A4200D0012070474069A3
:100D900080B2704701837047418370470AB1018375
:100DA0007047418370474161704742694A404261E0
:100DB00070474B07DB0E9A40C90810B500EB810065
:100DC000016A0F249C40A1430162016A1143016240
:100DD00010BD000000000240000402400008024074
:100DE000000C0240001002400014024000180240B3
:100DF000001C024000200240002402400028024063
:100E0000F848016841F001010160F64A002108320A
:100E100011600268F44B1A400260031DF34A1A6025
:100E2000F04BF34A84331A60F04A103A1B1D1A60E3
:100E3000026822F480220260EA480C300160181D2A
:100E400001607047E7490022891C0A7008707047EA
:100E500002460020510901290CD002290CD0E14999
:100E60007431096802F01F02012393400B4200D045
:100E700001207047DB49F4E7DA497031F1E718B532
:100E800000204FF4A04400903120FFF7E1FF0099CB
:100E9000491C0091A14201D00028F5D03120FFF774
:100EA000D7FF002800D0012018BDCE490A6822F0E3
:100EB000F80242EAC00008607047CE4908607047F7
:100EC000C849002270310A700A70012802D0042833
:100ED00001D1052008707047C7490860704741EA92
:100EE00082115A0810B5C54B029C03EB0242114314
:100EF000014341EA0460BB49091D086010BDBD49BA
:100F000008667047800140EA0170B6498431086084
:100F10007047B84988667047800140EA0160B1496E
:100F200040EA0270883108607047B249086770472C
:100F3000B049C8647047AB4A08321368084323F0CD
:100F4000EC63184310607047A64A083213680843E0
:100F500023F07843184310607047A24A08321168A2
:100F600021F003010143116070479E48083000687A
:100F700000F00C0070479B4A0832116821F0F00124
:100F8000014311607047974A0832116821F4E0511B
:100F9000014311607047934908310A6822F46042A6
:100FA00042EAC0000860704770B58E4A0832116886
:100FB000934C11F00C0104D06610042903D00829C9
:100FC00003D004601BE0066019E08649091D0B6828
:100FD000C3F380550B6803F03F0315B1B6FBF3F381
:100FE00001E0B4FBF3F30C680968C4F388146343AD
:100FF000C1F30141491C4900B3FBF1F101601168E3
:101000000F2303EA11117F4B5C5C0168E1404160F2
:101010001468072505EA94241C5D21FA04F4846011
:10102000126805EA52329A5CD140C16070BDC0F3CB
:101030000121032908D16B4A0832116821F4F81301
:101040007149014019431160664970310A68C0F363
:101050000B0002430A6070476749443908607047D3
:1010600065494039086070476249C1F85C017047C2
:101070005C4A8C321168401E21F01F01014311604F
:10108000704758498C310A686FF0FF0322F4F85218
:1010900003EB0020104308607047524A8C321168FD
:1010A00021F440110143116070474E4A8C3211689F
:1010B00021F440010143116070474A4A8C321168A3
:1010C00021F440310143116070475049C1F8E001FB
:1010D0007047444A30320029116801D0014300E0D2
:1010E0008143116070473F4A34320029116801D0B2
:1010F000014300E08143116070473A4A38320029C9
:10110000116801D0014300E0814311607047354A06
:1011100040320029116801D0014300E08143116091
:101120007047304A44320029116801D0014300E081
:101130008143116070472B4A10320029116801D099
:10114000014300E0814311607047264A14320029B0
:10115000116801D0014300E0814311607047214ACA
:1011600018320029116801D0014300E08143116069
:1011700070471C4A20320029116801D0014300E069
:10118000814311607047174A24320029116801D049
:10119000014300E0814311607047124A5032002938
:1011A000116801D0014300E08143116070470D4A8E
:1011B00054320029116801D0014300E081431160DD
:1011C0007047084A58320029116801D0014300E0F5
:1011D000814311607047034A60320029116817D0BB
:1011E000014316E000380240FFFFF6EA1030002409
:1011F0000030002000004742800E47420000FFFF01
:101200000024F40018000020FFFCFF0F00104742EC
:10121000814311607047194A0029116801D00143C8
:1012200000E081431160704714490C3101280868BF
:1012300003D020F008000860704740F00800FAE78B
:101240000E4A573A0029117801D0014300E081434A
:101250001170704709481030016841F080710160D9
:1012600070470146054A0020583A12680A4200D0E9
:1012700001207047014956390870704764380240B0
:1012800010B501218C032046FFF77DFF2046BDE805
:1012900010400021FFF777BF1449086070471449D8
:1012A0000862704710B58A0721F003041149130F33
:1012B00021440F22D1F808489A409443C1F80848C5
:1012C000D1F8082898400243C1F8082810BD084901
:1012D000C1F8DC00704708490860704703490020E6
:1012E00020310968C90500D5012070470038014048
:1012F000000027420030014000042742CD4910B5CC
:10130000884206D101211020FFF73DFF0021102067
:1013100020E0C949884202D101214C0429E0C74993
:10132000884202D101218C0423E0C549884202D1C0
:101330000121CC041DE0C349884202D101210C05E2
:1013400017E0C149884209D101212020FFF71BFF86
:1013500000212020BDE81040FFF715BFBB4988429F
:1013600002D101218C0704E0B94988420AD1012148
:1013700044052046FFF7FDFE2046BDE81040002151
:10138000FFF7F7BE10BD7FB50446008A0D4620F476
:101390004051E88808432082A08941F20C618843CB
:1013A000A9882A8911436A8902431143A181A08A2D
:1013B00020F44071A8890843A0826846FFF7F4FD35
:1013C0009C48844202D0A048844201D1039800E0A6
:1013D0000298A189090400EBC00101EB0010296803
:1013E00001D5490000E08900B0FBF1F26420B2FBB6
:1013F000F0F109010B096FF018056B4302EB830252
:10140000A3891D044FF0320306D503EBC202B2FBE1
:10141000F0F000F0070005E003EB0212B2FBF0F081
:1014200000F00F00084320817FBD4FF4165101608A
:1014300000218180C18001810C224281818170471D
:1014400010B5028A4C8822F470630A8822438C8883
:10145000C9880C4322431A43028210BD0021018037
:1014600041808180C18070470029818902D041F488
:10147000005101E021F4005181817047028B02F498
:101480007F420283028B0A430283704700298189CD
:1014900002D041F4004101E0C1F30E0181817047A7
:1014A0000029818A02D041F4006101E021F4006149
:1014B00081827047C1F30801818070478088C0F342
:1014C00008007047028A22F00F020282028A0A4351
:1014D000028270470029818902D041F0020101E0B7
:1014E00021F0020181817047828922F400628281A9
:1014F00082890A4382817047028A22F02002028296
:10150000028A0A43028270470029018A02D041F40C
:10151000804101E021F4804101827047818941F0DE
:101520000101818170470029818A02D041F00801C0
:1015300001E021F0080181827047028BD2B2028360
:10154000028B42EA0121018370470029818A02D07F
:1015500041F0200101E021F0200181827047002943
:10156000818A02D041F0100101E021F01001818256
:101570007047828A22F004028282828A0A4382822F
:1015800070470029818A02D041F0020101E021F078
:10159000020181827047002A828A01D00A4300E05A
:1015A0008A438282704710B5C1F3421301F01F04D1
:1015B0000121A140012B07D0022B07D01430002AB3
:1015C000026805D00A4304E00C30F8E71030F6E773
:1015D0008A43026010BD0246002012880A4200D0F1
:1015E00001207047C9430180704730B501F01F02E8
:1015F00001240025C1F3421304FA02F2012B0FD09B
:10160000022B0FD0838A4FEA11210088134204FA7B
:1016100001F400EA040001D000B10125284630BDE4
:101620008389F0E7038AEEE70A0A01219140C94362
:101630000180704700100140004400400048004015
:10164000004C004000500040001401400078004071
:10165000007C004010B504466FF00400FFF70EF860
:101660002948E10801EB41020170C2EBC1114FF6BC
:10167000FF7202EAC101418010BD23490978484345
:101680004FF0E021486100228A61086940F00100C2
:1016900008610869C30701D0C003FAD5086920F0C2
:1016A000010008618A6170471749498848434FF033
:1016B000E021486100228A61086940F00100086168
:1016C0000869C30701D0C003FAD5086920F00100FA
:1016D00008618A61704770B54FF40775B0FBF5F18A
:1016E000CCB2B0FBF5F105FB110604E02846FFF78C
:1016F000DBFF641EE4B2002CF8D1002E03D030468C
:10170000BDE87040D0E770BD280000207047444914
:101710000A885206FCD5C2B28A807047F0B50646E8
:10172000012187B00846FFF7D4FC01211020FFF704
:10173000F8FC3C4F072209213846FFF73AFB072205
:101740000A213846FFF735FB4FF4C06004900220B1
:101750008DF814008DF8150000248DF81640012531
:101760008DF8175004A93846FFF79AFAADF80440EF
:10177000ADF80640ADF80840ADF80C400C20284C00
:10178000ADF80A00009669462046FFF7FCFD0121EE
:101790002046FFF769FE40212046FFF723FF012284
:1017A00040F225512046FFF7FEFE25208DF8180057
:1017B00003208DF819008DF81A008DF81B5006A82B
:1017C000FEF71BFF07B0F0BD70B5154C40F2255178
:1017D0002046FFF70AFF00280ED02046FFF76EFED6
:1017E000C2B2114801880B0406D44C044FF0000328
:1017F00006D50A2A01D0038070BD41F400410DE0F6
:101800000D2A09D0C1F30D04084D491C89B22A558F
:101810000180C729EFD870BD41F48041018070BDBF
:1018200000100140000002402C0000205C04002059
:10183000F0B5FF4BFF20FF4DD871002105F5A862E0
:101840009FEDFD1B002005EB811602EB8114B0EE2D
:10185000410AF0EE610A00BF06EBC00787ED000BFE
:1018600004EBC007401CC0B287ED000B0828F3D37F
:10187000491CC9B26429E5D3F14A002002F1A8014C
:1018800002EBC00484ED000B01EBC004401CC0B2AD
:1018900084ED000B6428F3D3142098719FEDE90BBD
:1018A00082ED000B9FEDE90B82ED280B9FEDE90B1C
:1018B00081ED000B9FEDE90B81ED280BF0BD2DE9CB
:1018C000F05FDB4A92F90700401CC11700EB517131
:1018D00021F00701401A44B2D4719579D54A00210C
:1018E00002F5A86012E06B1A02EB831707EBC4063F
:1018F000491C16ED101BC9B286ED001B00EB8316C8
:1019000006EBC40313ED101B83ED001BA942EAD3C1
:1019100002EBC401934681ED000B9FEDC70B00EB7A
:10192000C409002689ED000B82466F1C1EE000BF33
:101930000BEB861101EBC40090ED000BC04853EC9B
:10194000102BA83000EBC60090ED001B51EC110BE2
:1019500001F036FA0AEBC40898ED001B53EC112B8A
:1019600001F02AF9761CF6B2C8E90001BE42DFD3C5
:1019700001266D1C1DE00AEB861000EBC4005746E3
:1019800090ED000BAE4853EC102B00EBC60090ED31
:10199000001B51EC110B01F013FA07EBC40797ED94
:1019A000001B53EC112B01F03FFB761CC7E9000133
:1019B000F6B2AE42DFD399ED000BBDE8F09FF0B573
:1019C000A84A4CF250351468002C59DD9849A64FAE
:1019D0004E89761C641EB3B214604E81002607EB5C
:1019E000831700BFB0EC020B07EBC60C761CF6B2F7
:1019F0008CED000B082EF5D3AC420DDA41F28830A5
:101A000094FBF0F600FB164030B99848D0F8A46279
:101A100046B10026C0F8A4620E7964270120012E89
:101A200002D011E00126F5E75E1CB6FBF7FC07FBD0
:101A30001C664EB98E89761C8E81A3F50076C8701F
:101A4000573E01D1761E4E815E1CB6FBF7FC07FBAC
:101A50001C6636B15FF00006B3F5957F03D901230C
:101A600002E00126F8E700231E404B79012B00D04D
:101A700000231E4203D0087100234B71C8705CB173
:101A80001068002807DA401C106004D178480078FC
:101A9000012800D11560F0BD7648F8E770B5764CA6
:101AA00040F225512046FFF7A0FD00281BD020461C
:101AB000FFF704FD5E4CC0B2217851B10025012929
:101AC0000BD0022912D003290DD1217A814274D082
:101AD0000AE0552807D1012062E0AA2804D102209B
:101AE0002070A570258170BD257070BD21895E4D67
:101AF00001442181A678A5F14005F10752D001F0FB
:101B00000FF941EC100BC6F3420005EBC00651EC97
:101B1000100B96ED001B53EC112B01F04DF841EC2E
:101B2000100B86ED000B9FED551B53EC112B01F0B4
:101B300045FA10D8A078C0F3420005EBC00696ED38
:101B4000000B9FED501B51EC100B53EC112B01F0CF
:101B500077FAC6E90001A078C0F3420005EBC006A1
:101B600096ED000B9FED491B51EC100B53EC112B24
:101B700001F066FA41EC100B86ED000BFFF79FFEBB
:101B8000A078C0F3420005EBC00080ED000BA07808
:101B9000401CC0B2A07061788842A6D12078401C59
:101BA000207070BD000201F0BBF8C6F3420205EBE5
:101BB000C202C2E90001EAE7FFE72B484038FFF71D
:101BC000FEFE91E72DE9F0412B4E804688B030466D
:101BD000FFF794FB01210220FFF77BFA0121880423
:101BE000FFF795FA02218DF814108DF815104FF4B7
:101BF00040600024274F04908DF8164001258DF891
:101C0000175004A93846FFF74BF807220B21384636
:101C1000FFF7CFF807220A213846FFF7CAF8ADF8D8
:101C20000440CDF80080ADF80640ADF8084033E040
:101C30002E000020689B0020000000000000000033
:101C4000E8A50020000000000000F03F36A86C343A
:101C5000C0E9E9BF1F54361AE0F4EC3F1F54361AAE
:101C6000E0F4ECBF4C0000206805002000804242F8
:101C7000500000204A000020004800400000000002
:101C8000C0FFDF40000000000000F0400000000046
:101C900000189D40000402400C20ADF80A00ADF889
:101CA0000C4069463046FFF76EFB012240F2255199
:101CB0003046FFF778FC01213046FFF7D5FB27209F
:101CC0008DF818008DF8195003208DF81A008DF842
:101CD0001B5006A8FEF791FC08B0BDE8F08100009B
:101CE0002DE9F04F00272DED088B81B09FEDFA8A8A
:101CF000DFF8E883FA4D9FEDFBABF848001D0026A6
:101D0000C15D88F80010F94901EB071484ED008AE1
:101D100084ED018A84ED028A84ED038AF448008808
:101D200000EBC00101EB001006EB80004FF41671D0
:101D3000431EB0FBF1F293FBF1FC01FB120201FB2D
:101D40001C330FFA83FB801E90FBF1F301FB1300A1
:101D500000B2009098F8009005EB821A0AEBC900D7
:101D600090ED000BB0EE409AF0EE609A00F0E8FEC5
:101D7000B0EE401AF0EE601AB0EE41BAF0EE61BA81
:101D8000206801F047FA53EC1B2B00F015FF00F020
:101D9000E1FE2060002E71D005EB8B1B0BEBC90020
:101DA00090ED000B51EC190B53EC102B01F008F8DF
:101DB00053EC1A2B01F002F901D2012000E00020BF
:101DC00000EE100AD4ED010AB8EE400A30EE200A07
:101DD00084ED010A98F800000BEBC00181460AEB84
:101DE000C90091ED009B90ED000B53EC192B51ECC9
:101DF000100B01F025F98B4682464BEC100B00F0DE
:101E00009FFEB0EE40BAF0EE60BAA06801F002FAB0
:101E100053EC1B2B00F0D0FE00F09CFEA060012EC6
:101E20002CD9009805EB801101EBC90090ED000B57
:101E300051EC190B53EC102B01F002F941EC100B93
:101E40004BEC11AB53EC102B51EC110B00F0B8FF25
:101E5000B0EE4A1AF0EE6A1A53EC112B01F0AEF80C
:101E600001D2012000E0002000EE100AD4ED030AA8
:101E7000B8EE400A30EE200A84ED030A761CB6B2B2
:101E8000B6F5967FFFF44AAF7F1CBFB2082FFFF470
:101E900034AF01B0BDEC088BBDE8F08FF0B5B7EE04
:101EA000000A054680ED200A00239FED8B0A914928
:101EB00001EB83025B1CDBB282ED000A062BF7D339
:101EC0008C4E00241836002301EB840203EB4307F9
:101ED00006EBC70707EB840792ED000A97ED001A9F
:101EE00005EB83075B1CD7ED001ADBB2202B01EE5C
:101EF000210A82ED000AE9D3641CE4B2062CE2D385
:101F00007D4C002301EB830204EB830592ED000A74
:101F100095ED001A5B1CDBB230EE010A062B82ED58
:101F2000000AEFD35FF0000201EB820393ED000A99
:101F300022B1B4EEE00AF1EE10FA02DDF0EE400A52
:101F40001046521CD2B2062AEED3644A5188491C6C
:101F50005180F0BDF0B5684A0021684C183200206D
:101F600004EBC11502EBC11305EB800696ED000AE8
:101F700003EB8006401C00B286ED000A2028F3DB4C
:101F8000491C09B22029EADB5D4D9FED530A00216F
:101F9000202005EB012300BF03EB8004401C00B2AE
:101FA00084ED000A4028F7DB491C09B22029EFDB49
:101FB0000020B7EE000A00BF05EB002101EB800115
:101FC000401C00B281ED200A2028F5DB0021002012
:101FD00002EBC11305EB012403EB800696ED000A2A
:101FE00004EB8006401C00B286ED000A2028F3DBDB
:101FF000491C09B22029EADB5FF0000005EB002450
:1020000004EB8003014693ED000A09E005EB012291
:1020100002EB8002491CD2ED400A09B2C3ED000A6E
:10202000D3ED000AF5EEC00AF1EE10FAEED08142CF
:102030002ADD05EB012202EB800181ED000A00217F
:102040000EE000BF04EB810602EB810796ED000A6B
:10205000D7ED000A491CC6ED000A87ED000A09B257
:102060008142EFDB411C0CE002EB810704EB8106AF
:10207000D7ED000A96ED000AC6ED000A87ED000ACA
:10208000491C09B24029EFDB411C09B28E461FE012
:1020900005EB012C3F220CEB800715E004EB8206D8
:1020A00097ED000AD6ED000A93ED001A0CEB8206BC
:1020B00060EE200A521E12B280EE810AD6ED000AAE
:1020C00030EEC00A86ED000A8242E7DA491C09B206
:1020D0002029DDDB3F2121E0000000003C00002042
:1020E00068050020000000000000000050A700204C
:1020F0003A00002008AB002020E2002020B10020A0
:1021000038F2002004EB8102D3ED000A92ED000AC0
:10211000491E09B280EE201A82ED001A8142F1DADE
:102120007046BEF1200FFFF669AF05EB00233F219B
:1021300003EB8002401E0BE003EB8104D2ED000AAA
:1021400094ED000A491E09B280EE201A84ED001AAF
:102150008142F1DA1F2000223F2103E000221BE030
:102160003F2115E005EB022404EB810304EB80041E
:1021700093ED000AD4ED000A05EB002404EB810482
:10218000491E94ED001A09B200EEC10A83ED000A5F
:102190008142E7DA521C12B28242E1DB401E00B2F9
:1021A0000028DBDCF34A0020002102EBC01305EB22
:1021B000002400BF04EB810696ED200A03EB8106A4
:1021C000491C09B286ED000A2029F3DB401C00B24D
:1021D0002028E9DBF0BD2DE9F14F00211FED420A77
:1021E000E54A01EB4103002002EBC30303EB80044B
:1021F000401C80B284ED000A0628F7D3491C89B23E
:102200002029EED3DD49002001EB8002401C80B282
:10221000894682ED000AC028F6D3D94A0021A2F5EA
:102220000053A2F58054002002EBC11604EBC11547
:1022300003EBC11707EB800C9A468CED000A06EB06
:10224000800C93468CED000A05EB800C401C80B29C
:102250008CED000A2028EDD3491C89B22029E2D355
:10226000C84A0020A2F1800101EB80038E4683ED75
:10227000000A02EB8003401C80B283ED000A202894
:10228000F2D30020BF49803101EB8002401C80B2B4
:1022900082ED000A0628F5D3BB4BBC48002101EBB8
:1022A000C10433F81150002204EB4114A618521C4B
:1022B00092B220F81650292AF8D3491C89B20A296B
:1022C000EDD3B34D0021B7EE000AB04A002335F834
:1022D00011609C3A02EB810430F81320B2421BD10A
:1022E000009F002207EBC31C0CEB820702EB411896
:1022F000D7ED000A09EB8807521C97ED001A92B23D
:10230000202A70EE810AC7ED000AEDD3D4ED000A51
:1023100070EE800AC4ED000A5B1C9BB24FF4CD78CE
:102320004345D9D3491C89B20629CED3974D002104
:102330009C3D4C4605EB81030022D3ED000A00BF13
:1023400002EB411304EB8303521C93ED001A92B28B
:10235000202AC1EE201AC3ED001AF1D3491C89B21C
:102360000629E7D300258A48002330F815908748CE
:1023700030F8131049454FD10098002100EBC312EB
:102380004FEA0E0002EB8106D6ED000A01EB45167E
:1023900004EB860696ED001A00EB8106491C70EEF0
:1023A000C10A89B22029C6ED000AEBD300225E469D
:1023B00000EB82070021D7ED000A06EBC21700BF31
:1023C00000EB810C9CED001A07EB810C491C20EE00
:1023D000811A89B220298CED001AF1D3521C92B2D5
:1023E000202AE5D3002000210BEBC0170AEBC01612
:1023F00006EB810207EB810CD2ED000A9CED001A7E
:10240000491C89B270EE810A2029C2ED000AEFD37F
:10241000401C80B22028E6D35B1C9BB24345A6D368
:102420006D1CADB2062D9ED30021DFED5A0A524637
:10243000002002EBC11300BF03EB8005401C95EDAB
:10244000001A80B22028C1EE201AC5ED001AF3D37D
:10245000491C89B22029EBD35FF0000002EBC011C8
:1024600001EB8001401CD1ED000A80B2202870EE03
:10247000800AC1ED000AF1D3FFF76CFD3D4ADFF899
:1024800018810021002002EBC11308EBC11500BF29
:1024900003EB800696ED000A05EB8006401C80B237
:1024A00086ED000A2028F3D3491C89B22029E9D3FC
:1024B000314B002000EB4001002208EBC01603EB7B
:1024C000C107002107EB820506EB810C95ED000AA0
:1024D000DCED000A01EB421C04EB8C0C491C9CED6A
:1024E000001A89B2202900EE810A85ED000AEBD39B
:1024F000521C92B2062AE4D3401C80B22028D9D3C1
:10250000204A00208032002102EB800501EB4106C9
:1025100003EBC60606EB800695ED000A96ED001A61
:1025200001EB401604EB8606491CD6ED000A89B281
:10253000202900EE810A85ED000AE7D3401C80B215
:102540000628E0D30020BEEE000A00BF02EB8001A7
:10255000401CD1ED000A80B2062860EE800AC1ED71
:10256000000AF3D30D490020C1F8A8020C490870F5
:10257000BDE8F88F3812012020AB002020AE0020EB
:1025800020D10020A0E1002054000020D4A700208A
:10259000680000200000CA4320C1002000804242A1
:1025A000490000201CB501211120FEF792FD1C20DE
:1025B000009000208DF8040003208DF80500012410
:1025C0008DF8074069463548FEF76AFB02208DF812
:1025D0000700009469463248FEF762FB1CBD2DE9F6
:1025E000F041304D2E4F2D4C012608B12E7001E0E8
:1025F0002878A0B110212046FEF7B8FBB0B1082121
:102600002046FEF7B3FB88B104212046FEF7AEFB5F
:1026100060B101213846FEF7A9FB012806D0102140
:102620002046FEF7A3FB012824D035E00A20FFF75F
:1026300052F80020287010212046FEF797FB80B149
:1026400008212046FEF792FB70B104212046FEF7D8
:102650008DFB58B101213846FEF788FB012807D0D1
:102660001AE00120BDE8F0810220FBE70320F9E732
:102670000420F7E708212046FEF778FB01280BD15C
:1026800004212046FEF772FB012805D101213846BE
:10269000FEF76CFB00B92E700020E3E7001002404B
:1026A000000002404800002010B50A20FFF713F890
:1026B00001213848FEF75AFB01280AD13649384A29
:1026C0000870364911603749087037490020C1F851
:1026D000A402BDE810400120FEF749B810B50A2059
:1026E000FEF7F9FF08213148FEF740FB50B92A49AF
:1026F00001202B4A4870294911602A4908702A494B
:10270000C1F8A402BDE810400820FEF730B8FEB5BD
:10271000FFF748FF01218803FEF703FD0321042092
:10272000FEF7C0FD00210846FEF7BCFD0025012490
:102730008DF8045008268DF8056000948DF8064049
:102740006846FDF7BBFF8DF804500C208DF805009E
:1027500000968DF806406846FDF7B0FF06208DF81C
:1027600008008DF8094002208DF80A008DF80B4012
:1027700002A8FDF742FF09208DF808008DF80940F6
:1027800003208DF80A008DF80B4002A8FDF735FFF5
:10279000FEBD0000000002404900002030F8FFFFAD
:1027A0004C000020500000200080424200100240F7
:1027B0007CB501212020FEF78CFC01208DF804005F
:1027C00000218DF8061003218DF80510074D4FF4F8
:1027D000C0648DF80700009469462846FEF760FA49
:1027E00021462846FEF7D6FA7CBD000000140240C0
:1027F0002DE9F04798B001217A20FEF76AFC01210B
:102800000846FEF77AFC01258DF8045000244FF4A9
:1028100000408DF80640022600908DF805608DF886
:1028200007506946A648FEF73BFA8DF804604FF65C
:1028300033708DF806400327DFF888A200908DF8EA
:1028400005708DF8075069465046FEF729FA8DF855
:1028500004604FF683708DF80640DFF86C920090AC
:102860008DF805708DF8075069464846FEF718FA4E
:102870008DF804604FF23F008DF80640DFF84C827F
:1028800000908DF805708DF8075069464046FEF7B8
:1028900007FA8DF804608DF806408DF805708DF804
:1028A000075040F23F408A4D009069462846FEF7A7
:1028B000F7F90C2200215046FEF77BFA0C22012189
:1028C0005046FEF776FA0C2204215046FEF771FAC4
:1028D0000C2205215046FEF76CFA0C2208215046C6
:1028E000FEF767FA0C2209215046FEF762FA0C2225
:1028F0000A215046FEF75DFA0C220B215046FEF7E6
:1029000058FA0C2211465046FEF753FA0C220D21BC
:102910005046FEF74EFA0C220E215046FEF749FAB9
:102920000C220F215046FEF744FA0C2200214846A3
:10293000FEF73FFA0C2201214846FEF73AFA0C2234
:1029400007214846FEF735FA0C2208214846FEF7D3
:1029500030FA0C2209214846FEF72BFA0C220A21F4
:102960004846FEF726FA0C220B214846FEF721FACC
:102970000C2211464846FEF71CFA0C220D2148464F
:10298000FEF717FA0C220E214846FEF712FA0C2227
:102990000F214846FEF70DFA0C2200214046FEF7B3
:1029A00008FA0C2201214046FEF703FA0C2202210C
:1029B0004046FEF7FEF90C2203214046FEF7F9F9E6
:1029C0000C2204214046FEF7F4F90C220521404672
:1029D000FEF7EFF90C2211464046FEF7EAF90C2209
:1029E0000D214046FEF7E5F90C220E214046FEF788
:1029F000E0F90C220F214046FEF7DBF90C22002102
:102A00002846FEF7D6F90C2201212846FEF7D1F917
:102A10000C2202212846FEF7CCF90C22032128467D
:102A2000FEF7C7F90C2204212846FEF7C2F90C2252
:102A300005212846FEF7BDF90C220A212846FEF79B
:102A4000B8F90820CDE91240119416940420179487
:102A5000CDE9020414941020CDE9044015940694A5
:102A60000002CDE90A4011A80994CDE90E4008946E
:102A7000079410900C940D9402A8FDF795FE012187
:102A80000420FDF70AFF18B0BDE8F08710B5002A52
:102A900008D000BF4FF0D04310F8014B5C54491CE4
:102AA000521EF7D110BD002A08D000BF4FF0D0430E
:102AB0005B5C491C00F8013B521EF7D170470000D7
:102AC00000040240000C02400010024000140240CA
:102AD00000180240704770477047754600F02CF8A8
:102AE000AE4605006946534620F00700854618B0FB
:102AF00020B5FDF76BFDBDE820404FF000064FF01C
:102B000000074FF000084FF0000B21F00701AC4622
:102B1000ACE8C009ACE8C009ACE8C009ACE8C00941
:102B20008D46704710B50446AFF300802046BDE8DF
:102B30001040FDF772BB00000048704738EF0120DD
:102B40002DED020B019820F0004001909DED000B4F
:102B500002B0704721F00042A2F16052B2F5801F2E
:102B600001F0004328BFD2F17F6C0BD95FEA001C53
:102B700043EAC20242EB507018BF704728BF20F0F2
:102B800001007047B2F5801FBCBF184670474FEA7E
:102B9000410C1CF5001F02D2084600F0B1BB70B515
:102BA00000F0B8F900000089FFF7F6BF4FF00040D1
:102BB000A0F580007047000010B591EA030F48BFF0
:102BC00083F0004300F14482841A71EB030C05D2B8
:102BD000121943EB0C03001B61EB0C01DFF824E13D
:102BE0004FEA1154A4EB135C1EEA430F18BF9EEA90
:102BF000445F73D023EA0E03DCF1200E21EA045176
:102C000043F4801332D322FA0CFE10EB0E0023FAA9
:102C10000CFE41EB0E01CCF1200E03FA0EFE10EB80
:102C20000E0051F10001B1F5801FCCF1200E32D21F
:102C300001EB045112FA0EF2BDE8104058BF704784
:102C4000401C38BF5FEA420218BF7047002814BF1B
:102C500020F0010041F100014FEA410313F5001F8C
:102C600038BF7047A1F1C04100F0A2B9012A43EB7F
:102C70000302ACF1200CDCF11F0E32BF4FF0000E4E
:102C800023FA0CF310EB030041EB0451B4EB115F9A
:102C9000D0D0A1EB045101F5801149085FEA300062
:102CA00001EB04510ED350F1000038BF12FA0EFEB2
:102CB00008D1BDE81040C9E7401C38BF5FEA4202B6
:102CC000CAD1C3E7BDE810404FEA410313F5001F26
:102CD00038BF7047A1F1C04100F06AB99EEA445F75
:102CE00008D011EA5E0FBDE8104004BF01F00041BA
:102CF00000207047BDE8104070B500F00BF900BF30
:102D000064FBBE3E0000E0FF491058BFC1F14041E6
:102D10005B1058BFC3F140438B42EFF30080704714
:102D2000B0FA80F310FA03F10AD0C3F11D0303F5E2
:102D300080634FEA41504FEA035202EBD1217047C2
:102D40004FF000007047000051EA030C17D41CF547
:102D5000801F58BFBCF5801F00F10680994218BF44
:102D6000704708BF9042704707D711F5801F58BFC2
:102D700013F5801F19D499427047894270471CF59A
:102D8000801F08D5BCF5801FF7D58B4218BF704750
:102D900008BF824270474FF4001C1CEB410F38BF44
:102DA0001CEB430F01D28B42704770B500F0B2F8B4
:102DB000922449004FF000514FF08053FFF7A4BF19
:102DC000DFF848C170B51CEA111E1EBF1CEA1315BE
:102DD0009EEA0C0F95EA0C0F00F06F8081EA030465
:102DE00023EA4C134EEAD47E21EA4C1141F48011BF
:102DF00043F48013AE44A1FB024CA0FB0365AEF18B
:102E00007F7E361955EB0C05A1FB034C4CF10003FA
:102E1000A0FB021C16EB0C06654153F100030942AE
:102E200018BF46F0010613F4007F0BD14FEA0331BF
:102E30004FEA0530340341EA155140EA16506FF06D
:102E400003020AE04FEAC3214FEAC520F40241EA37
:102E5000555140EA56506FF0020202EB2E4201EB50
:102E6000025585EACE710AD05FEA440C18BF24F0FF
:102E7000004450F1000041F1000120EAD47040F21A
:102E8000FE7C624500D270BDA84214BF4FF0804462
:102E90004FF04044002E08BF0024BEF1806FA8BF51
:102EA000A1F1C041BDE8704080F282804FF0000087
:102EB00001F1C04101F0004170479EEA0C0F0CEA9D
:102EC000131518BF95EA0C0F06D04FF0000081EAE9
:102ED000030E0EF0004170BD00F01CF88900013EA9
:102EE00000F007B800F009B84FEA430C5FEA5C5CF9
:102EF00008D081EA030100F05BB84FEA410C5FEAB9
:102F00005C5CF6D14FF00000014970470000FF07FC
:102F10000000F87F0EF1020E2EF0030E5EF8046B37
:102F2000364205D4012A43EB030515F5001F12D8DC
:102F3000012841EB010C1CF5001F0CD80ED14FEA03
:102F4000D17C15F5001F0CEB4C0C0CF1020C08BFEA
:102F50004CEBD37C04E04FF0080C01E04FEAD37C4B
:102F60000CEB4C0526FA05F606F00706B6F1040C44
:102F700006D20EEB860CBDE870404CF0010C6047A9
:102F8000DFE80CF0090B02024FF000414FF00000A7
:102F9000A1F5002170BD19461046012851EB01042E
:102FA00018BFD4F5001484BF002001F0004170BDAB
:102FB0000808A0F500114FEA3101704753EA010CEF
:102FC00017D41CF5801F58BFBCF5801F00F1068088
:102FD0008B4218BF704708BF8242704707D713F56E
:102FE000801F58BF11F5801F19D48B4270479B4238
:102FF00070471CF5801F08D5BCF5801FF7D5994296
:1030000018BF704708BF904270474FF4001C1CEB7C
:10301000430F38BF1CEB410F01D2994270470FB4E8
:103020000CBC03BCFFF7C1BE91EA030F10B581F0E1
:1030300000413FF5C9AD83F0004300F009B800003E
:1030400010B591EA030F48BF83F000433FF5BCADD4
:10305000841A71EB030C07D212198CF0004C43EB6D
:103060000C03001B61EB0C01DFF8A4E14FEA1154E3
:10307000A4EB135C1EEA430F18BF9EEA445F00F006
:10308000B08023EA6E03524221EA0451C3EB6E037F
:1030900038BF5B1EDCF1200E25D322FA0CFE10EBAC
:1030A0000E0043FA0CFE41EB0E01CCF1200E03FAA8
:1030B0000EFE10EB0E0051F10001CCF1200E29D4D0
:1030C00012FA0EF201EB0451BDE8104058BF7047F0
:1030D000401C1CBFB2F1004F704700280CBF491CB8
:1030E00020F00100704712EB020E43EB030218BF01
:1030F0004FF0010E4EEA4202ACF1200CDCF11E0E44
:1031000054D943FA0CFE10EB0E0051F1FF31CCF113
:103110001E0ED5D50EF1010E12FA0EFE404141EB06
:10312000010101EB445C5FEA5C5C10D910EBDE70DE
:1031300001EB045138BFBEF1004FBDE8104018BF8D
:10314000704700280CBF491C20F00100704730D2A6
:103150004FEAD42C11F5001124F400641BD0B1FA0D
:1031600081F20B3AA41AA41ED2F12003914030FA46
:1031700003F31943904001EBCC71002C01EB045197
:10318000BDE81040A8BF704701F1C0414FF00000FA
:1031900001F000417047B0FA80F310FA03F100D15A
:1031A00010BDE41A173C4805C90AE4E701EB0451D5
:1031B00010BD491001EB0451BDE810404FEA30004A
:1031C00002E04FF0000170474A0008BF0042F8D00B
:1031D000B2F5001F28BF704701F000414FF000001A
:1031E00070479EEA445F07D011EA5E0FBDE81040C9
:1031F00004BF002100207047BDE8104070B5FFF704
:1032000089FE00BF40DFF63E83F000411046704764
:103210000000E0FF43004FEAD30C4FEA3C0C434070
:103220001FBF40070CF1605113F0FE4F70471CF0B8
:10323000006F03D100200CF0004170470CF00043F8
:1032400043EA507010B540EACC0000F00EF800BF21
:10325000000000924FEA0001FFF7AABE4FF00041C4
:103260004FF00000A1F5002170470EF1020E2EF084
:10327000030E5EF8044B244204D44FEA4102B2F13B
:103280007F4F11D84FEA4003B3F17F4F0CD80ED1D6
:103290004FEAD07CB2F17F4F0CEB4C0C0CF1020CDE
:1032A00008BF4CEBD17C04E04FF0080C01E04FEA82
:1032B000D17C0CEB4C0324FA03F404F00704B4F1C2
:1032C000040C06D20EEB840CBDE810404CF0010C4F
:1032D0006047DFE80CF0070802024FF00040A0F55D
:1032E000800010BD0846420018BFD2F1807288BF2E
:1032F00000F0004010BD4FF04070E1EE100A704742
:10330000FF2141EAD050C005704700000F000000C7
:103310000F000000FF0000000F0000000F00000081
:103320000F000000000000004833000800000020EB
:1033300074000000C4010008BC33000874000020C1
:1033400024FF0100E001000800000000007A030AE9
:103350000000000000000000010203040607080945
:10336000000000000102030401020304060708092B
:10337000000000000000001000000001000000003C
:10338000FFFF000000000000000102030405060723
:1033900001000000FFFFFFFF00000000000005002B
:1033A00001000500020005000300050004000500FF
:0C33B00000000100020003000400050002
:040000050800018965
:00000001FF
