:020000040800F2
:1000000050F701209D0600080D0500080F050008A7
:100010001105000813050008150500080000000080
:1000200000000000000000000000000017050008AC
:1000300019050008000000001B0500081D05000848
:10004000B7060008B7060008B7060008B70600089C
:10005000B7060008B706000819280008B706000808
:10006000B70600084D280008B7060008B7060008C4
:10007000B7060008B7060008B7060008B70600086C
:10008000B7060008B7060008B7060008B70600085C
:10009000B7060008B7060008B7060008B70600084C
:1000A000B7060008B7060008B7060008B70600083C
:1000B000B7060008B7060008B7060008B70600082C
:1000C000B7060008B7060008B7060008B70600081C
:1000D000B706000899180008B7060008811B000839
:1000E000B7060008B7060008B7060008B7060008FC
:1000F000B7060008B7060008B7060008B7060008EC
:10010000B7060008B7060008B7060008B7060008DB
:10011000B7060008B7060008B7060008B7060008CB
:10012000B7060008B7060008B7060008B7060008BB
:10013000B7060008B7060008B7060008B7060008AB
:10014000B7060008B7060008B7060008B70600089B
:10015000B7060008B7060008B7060008B70600088B
:10016000B7060008B7060008B7060008B70600087B
:10017000B7060008B7060008B7060008B70600086B
:10018000B7060008B7060008DFF80CD002F0CEFF73
:10019000004800479D01000850F70120A82001F009
:1001A000C1FA02F0EDFB01F0ABFB4FF47A75284683
:1001B00001F0F9FA02F0B4FB4FF4A06000F080FA0D
:1001C00002F05DFB4FF4E124204601F0E5FD2046FE
:1001D00001F00CFBB84E0024C6F88442642006F5FA
:1001E000217601F0E0FA7460642001F0DCFAB4607A
:1001F000642001F0D8FA01273760642001F0D3FAB7
:100200007760642001F0CFFAB760642001F0CBFA88
:10021000AAA002F09DFFDFF8ACA2DFF8AC92AB4ED3
:10022000DFF8ACB2AB4F00BF9AF8001019B18AF8F2
:10023000004001F0E2FCA8480078012833D199F889
:100240000010012924D1A54889F8004032210088F6
:10025000C01CB0FBF1F201FB1200092818D301F019
:10026000F7FDA14B9F4ADFF878C21988002002EB06
:10027000C11200BF0CEB800898ED000A02EB800869
:10028000401C80B288ED000A2028F3D3491C198055
:1002900095480088B0F5CD7F05D19448006810B925
:1002A000904802F050F8924800780128BCD199F8A3
:1002B00000100129B8D189F8004001F0C9FD884833
:1002C00001F0A4FE01463888B0FBF5F205FB1202EE
:1002D0000428B154B0FBF5F105FB1101715C8BF8FA
:1002E00000105ED9B0FBF5F205FB1202B35C421EB2
:1002F00092FBF5FC05FB1C2C16F80CC0634550D195
:1003000092FBF5F305FB1322B35C821E92FBF5FC16
:1003100005FB1C2C16F80CC0634542D192FBF5F38B
:1003200005FB1322B35CC21E92FBF5FC05FB1C2CE3
:1003300016F80CC0634534D192FBF5F305FB13228C
:10034000B35C021F92FBF5FC904605FB1C22B25CDD
:10035000934226D1401F98FBF5F290FBF5F305FB85
:10036000128205FB1300B25C305C824273D1062915
:1003700071D2DFE801F003172B3E4D5E4E215D4840
:1003800001F000F94C490120C1F88402C1F888024B
:10039000C1F88C02C1F88442C1F888025649C1F8FC
:1003A0009C0258E05021534801F0ECF842490120EA
:1003B000C1F88402C1F888024F4AC2F89C02C1F811
:1003C0008402C1F88842C1F88C0244E052214948B5
:1003D00001F0D8F838480121C0F88412C0F888121A
:1003E000C0F88C12C0F88442C0F88842C0F88C1261
:1003F00031E054213F4801F0C5F82F480121C0F8F1
:100400008412C0F88812C0F88C12C0F884120DE073
:100410004221384801F0B6F827480121C0F884127B
:10042000C0F88812C0F88C12C0F88442C0F8881254
:100430000FE030212F4801F0A5F81F480121C0F836
:100440008412C0F88812C0F88C12C0F88412C0F868
:100450008842C0F88C423888A0F5807199397FF4C1
:10046000E3AE2548C0F8A442DFF84C80C8F88442C7
:10047000642001F098F9C8F88842642001F093F9EB
:10048000C8F88C42642001F08EF90120C8F884027B
:10049000642001F088F90120C8F88802642001F086
:1004A00082F90120C8F88C02642001F07CF913A0C5
:1004B00002F04EFEB8E60000000041426265676946
:1004C0006E0D0A003A000020370000207C0000205A
:1004D00000000020460000205100002042000020C3
:1004E00068A70020502201205A000020540000205C
:1004F000520000200010014000804242636F756E80
:1005000074203D203430390D0A0000007047FEE7AA
:10051000FEE7FEE7FEE77047704770477047000050
:100520000CB500205449019000900A6842F48032D2
:100530000A604FF4A0430A6802F400320092019A64
:10054000521C0192009A12B9019A9A42F3D10A6898
:10055000920334D50120009047484030026842F0B1
:10056000805202604548026842F4404202604248BC
:10057000083002680260026842F4004202600268C9
:1005800042F4A0520260031F3D4A1A600A6842F01A
:1005900080720A600A689201FCD53A4A40F20571FD
:1005A0001160016821F003010160016841F002015E
:1005B00001600168C1F381010229FAD10CBD0090EC
:1005C0000CBD314810B5016841F4700101602A4842
:1005D000016841F001010160274A002108321160E1
:1005E00002682A4B1A400260031D294A1A600268F9
:1005F00022F48022026020480C300160FFF790FF57
:1006000021494FF000608039086010BD70B51A4C68
:10061000083420681F4A10F00C011F4804D0551000
:10062000042903D0082903D002601BE0056019E00B
:100630001149091D0B68C3F380560B6803F03F0393
:1006400016B1B5FBF3F201E0B2FBF3F20B680968F7
:10065000C3F388135A43C1F30141491C4900B2FB5B
:10066000F1F1016021680C4AC1F30311121D515CC4
:100670000268CA40026070BD00380240007000404D
:1006800008544007003C024088ED00E0FFFFF6FE02
:10069000103000240024F4000400002006488047A5
:1006A00006480047FEE7FEE7FEE7FEE7FEE7FEE757
:1006B000FEE7FEE7FEE7FEE7C30500088901000844
:1006C0002849084328490860704730B50F22C4788C
:1006D00001780123FCB1244C246801F1E02104F4E9
:1006E000E064C4F5E064C4F30724C4F10405E24007
:1006F0004478AC408578154025432A0181F80024D0
:10070000007800F01F018B404009800000F1E020DC
:10071000C0F8003130BD01F01F008340480980005F
:1007200000F1E020C0F8803130BD104A1140014393
:100730000D48001F016070470B4A121D0029116807
:1007400001D0014300E08143116070474FF0E02188
:100750000428086903D020F004000861704740F0C5
:100760000400FAE70000FA050CED00E080FFFF1F2F
:10077000354900200860091D0860091D0860091D31
:1007800008603149314814310860704730B52E494E
:100790008379026853B30B6893430B600A1D136897
:1007A0000468A343136002790A441368046823436E
:1007B0001360254A083213680468A3431360131DAD
:1007C0001C680568AC431C604479102C05D021449A
:1007D0000A68006802430A6030BD1168046821435A
:1007E0001160196800680143196030BD0079084440
:1007F00001689143016030BD0021016001710C224C
:10080000427181717047104910310A6802430A60D1
:10081000704701460C4A0020143212680A4200D088
:100820000120704708491431086070470146064AA4
:100830000020143212680A4200D001207047024999
:100840001431086070470000003C0140FFFF7F004A
:100850008100A1F1C04148B143F2D200C1F80000CB
:100860006FF070404860C1F8040170474FF02042BB
:1008700043F2DB001060F3E710B5D0E90112114339
:10088000D0E903231A43114342691143826911439A
:10089000C2691143026A1143426A1143826A1143D9
:1008A000C26A1143026B114302689200A2F1C04276
:1008B00011608168082907D101688900A1F1C04150
:1008C0000A6842F040020A60416BD1E9002342EA23
:1008D00003128B688C891B0243EA04431A430B8A78
:1008E00042EA03520B7D896942EA03620A430168C6
:1008F0008900A1F1C0414A60C16AB1F5804F08D0BA
:1009000000686FF070418000A0F1C040C0F8041191
:1009100010BD816BD1E9002342EA03128B680C8A77
:100920001B0243EA04531A430B7D896942EA0362BE
:1009300000680A438000A0F1C040C0F8042110BD47
:1009400000210222C0E900128160C16001614161A1
:100950008161D202C161C0E908125200C0E90A21D6
:100960000163CB494163816370478000A0F1C040BF
:100970000029016802D041F0010101E0C54A11409F
:100980000160704710B5182440234FF020414FF00C
:10099000FC32102805D041F8804F4B608A60CA6055
:1009A00010BD0C664B668A66CA6610BD30B5D0E9CC
:1009B00001121143D0E903231A431143426941EA6A
:1009C0004221826941EA4231C26941F00804D2E918
:1009D000001341EA03211389127B1B0443EA0262DC
:1009E000036A1143D3E9002542EA05221D891B7BD6
:1009F0002D0445EA03631A4303684FF02040102B8F
:100A000004D040F8804F8160C26030BD04668166CA
:100A1000C26630BD10210160002141608160C1606B
:100A2000016141618161C269FC211160C26951604B
:100A3000C2699160C269D160026A1160026A516044
:100A4000026A9160006AC16070474FF0204251B164
:100A5000102804D052F8800F40F004000AE0106E15
:100A600040F004000AE08B49C91E102804D052F857
:100A7000800F084010607047106E08401066704785
:100A80004FF0204251B1102804D052F8800F40F0AE
:100A900040000AE0106E40F040000AE07D493F3916
:100AA000102804D052F8800F084010607047106E74
:100AB0000840106670474FF02041102802D0D1F84E
:100AC00094007047486F70474FF02040182140F85D
:100AD000A01F002141604FF0FC318160C1600161C5
:100AE000704710B5D0E9001241EA42228168102314
:100AF00043EA41310A434FF0204141F8A02FC26838
:100B0000D2E9003443EA04231489127B240444EA22
:100B1000026213438B600269D2E9003443EA042382
:100B20001489127B240444EA02621343CB604069B7
:100B3000D0E9002342EA03220389007B1B0443EA35
:100B4000006002430A6110BD0021016041608160C4
:100B5000C268FC211160C2685160C2689160C268BD
:100B6000D160026911600269516002699160026995
:100B7000D160426911604269516042699160406987
:100B8000C16070474FF02041002851F8A00F02D0FB
:100B900040F0040002E03F4AD21E10400860704757
:100BA00010B54FF480744FF0204372B1102804D078
:100BB000A04205D153F8840F04E0586E08430DE0BD
:100BC00053F8A40F0843186010BD102804D0A042A9
:100BD00006D153F8840F05E0586E8843586610BD5F
:100BE00053F8A40F8843EEE7034600204FF020425D
:100BF000102B08D0B3F5807F07D0D2F8A4200A428A
:100C000000D001207047526EF9E7D2F88420F6E751
:100C10004FF02042102807D0B0F5807F08D052F85E
:100C2000A40F884310607047506E88435066704729
:100C300052F8840FF5E7034600204FF02042102BB6
:100C40000CD0B3F5807F0BD0D2F8A4200A4202EA80
:100C5000D10102D0002900D001207047526EF5E783
:100C6000D2F88420F2E74FF02042102808D0B0F5E7
:100C7000807F0AD052F8A40F20EAD100106070479C
:100C8000506E20EAD1005066704752F8840FF3E7A7
:100C900064340008FEFF0F00824910B5884206D177
:100CA0000121084600F0AFFA002101205BE07E49F7
:100CB000884206D10121022000F0A5FA002102207D
:100CC00051E07A49884206D10121042000F09BFAC4
:100CD0000021042047E07649884206D101210820FE
:100CE00000F091FA002108203DE07249884206D1C7
:100CF0000121102000F087FA0021102033E06E4916
:100D0000884206D10121202000F07DFA0021202018
:100D100029E06A49884206D10121402000F073FA97
:100D2000002140201FE06649884206D10121802031
:100D300000F069FA0021802015E06249884202D162
:100D4000012184150AE06049884202D1012144153D
:100D500004E05E4988420AD101210415204600F0D2
:100D600052FA00212046BDE8104000F04CBA10BDF8
:100D7000F0B50023012403270D6804FA03F215409F
:100D8000954242D1D0F800C05E0007FA06F52CEA81
:100D9000050CC0F800C091F804C0D0F800E00CFACF
:100DA00006FC4CEA0E0CC0F800C091F804C0BCF17F
:100DB000010F02D0BCF1020F1FD1D0F808C02CEAFD
:100DC000050CC0F808C091F805C0D0F808E00CFA8E
:100DD00006FC4CEA0E0CC0F808C0D0F804C02CEA9F
:100DE000020CC0F804C0426891F806C00CFA03FC7B
:100DF0001FFA8CFC42EA0C024260C268AA43C2603D
:100E0000CA79C568B2402A43C2605B1C102BB3D3B9
:100E1000F0BD4FF6FF7101600021017141718171D8
:100E2000C171704708B541F480320092C261C1615E
:100E30000099C161C169C069009008BD02460020E7
:100E400012690A4200D001207047006980B27047E1
:100E50000246002052690A4200D0012070474069D2
:100E600080B2704701837047418370470AB10183A4
:100E70007047418370474161704742694A4042610F
:100E800070474B07DB0E9A40C90810B500EB810094
:100E9000016A0F249C40A1430162016A114301626F
:100EA00010BD0000000002400004024000080240A3
:100EB000000C0240001002400014024000180240E2
:100EC000001C024000200240002402400028024092
:100ED000F848016841F001010160F64A002108323A
:100EE00011600268F44B1A400260031DF34A1A6055
:100EF000F04BF34A84331A60F04A103A1B1D1A6013
:100F0000026822F480220260EA480C300160181D59
:100F100001607047E7490022891C0A700870704719
:100F200002460020510901290CD002290CD0E149C8
:100F30007431096802F01F02012393400B4200D074
:100F400001207047DB49F4E7DA497031F1E718B561
:100F500000204FF4A04400903120FFF7E1FF0099FA
:100F6000491C0091A14201D00028F5D03120FFF7A3
:100F7000D7FF002800D0012018BDCE490A6822F012
:100F8000F80242EAC00008607047CE490860704726
:100F9000C849002270310A700A70012802D0042862
:100FA00001D1052008707047C7490860704741EAC1
:100FB00082115A0810B5C54B029C03EB0242114343
:100FC000014341EA0460BB49091D086010BDBD49E9
:100FD00008667047800140EA0170B64984310860B4
:100FE0007047B84988667047800140EA0160B1499E
:100FF00040EA0270883108607047B249086770475C
:10100000B049C8647047AB4A08321368084323F0FC
:10101000EC63184310607047A64A0832136808430F
:1010200023F07843184310607047A24A08321168D1
:1010300021F003010143116070479E4808300068A9
:1010400000F00C0070479B4A0832116821F0F00153
:10105000014311607047974A0832116821F4E0514A
:10106000014311607047934908310A6822F46042D5
:1010700042EAC0000860704770B58E4A08321168B5
:10108000934C11F00C0104D06610042903D00829F8
:1010900003D004601BE0066019E08649091D0B6857
:1010A000C3F380550B6803F03F0315B1B6FBF3F3B0
:1010B00001E0B4FBF3F30C680968C4F388146343DC
:1010C000C1F30141491C4900B3FBF1F10160116812
:1010D0000F2303EA11117F4B5C5C0168E140416022
:1010E0001468072505EA94241C5D21FA04F4846041
:1010F000126805EA52329A5CD140C16070BDC0F3FB
:101100000121032908D16B4A0832116821F4F81330
:101110007149014019431160664970310A68C0F392
:101120000B0002430A607047674944390860704702
:1011300065494039086070476249C1F85C017047F1
:101140005C4A8C321168401E21F01F01014311607E
:10115000704758498C310A686FF0FF0322F4F85247
:1011600003EB0020104308607047524A8C3211682C
:1011700021F440110143116070474E4A8C321168CE
:1011800021F440010143116070474A4A8C321168D2
:1011900021F440310143116070475049C1F8E0012A
:1011A0007047444A30320029116801D0014300E001
:1011B0008143116070473F4A34320029116801D0E1
:1011C000014300E08143116070473A4A38320029F8
:1011D000116801D0014300E0814311607047354A36
:1011E00040320029116801D0014300E081431160C1
:1011F0007047304A44320029116801D0014300E0B1
:101200008143116070472B4A10320029116801D0C8
:10121000014300E0814311607047264A14320029DF
:10122000116801D0014300E0814311607047214AF9
:1012300018320029116801D0014300E08143116098
:1012400070471C4A20320029116801D0014300E098
:10125000814311607047174A24320029116801D078
:10126000014300E0814311607047124A5032002967
:10127000116801D0014300E08143116070470D4ABD
:1012800054320029116801D0014300E0814311600C
:101290007047084A58320029116801D0014300E024
:1012A000814311607047034A60320029116817D0EA
:1012B000014316E000380240FFFFF6EA1030002438
:1012C0000030002000004742800E47420000FFFF30
:1012D0000024F40018000020FFFCFF0F001047421C
:1012E000814311607047194A0029116801D00143F8
:1012F00000E081431160704714490C3101280868EF
:1013000003D020F008000860704740F00800FAE7BA
:101310000E4A573A0029117801D0014300E0814379
:101320001170704709481030016841F08071016008
:1013300070470146054A0020583A12680A4200D018
:1013400001207047014956390870704764380240DF
:1013500010B501218C032046FFF77DFF2046BDE834
:1013600010400021FFF777BF144908607047144907
:101370000862704710B58A0721F003041149130F62
:1013800021440F22D1F808489A409443C1F80848F4
:10139000D1F8082898400243C1F8082810BD084930
:1013A000C1F8DC0070470849086070470349002015
:1013B00020310968C90500D5012070470038014077
:1013C000000027420030014000042742CD4910B5FB
:1013D000884206D101211020FFF73DFF0021102097
:1013E00020E0C949884202D101214C0429E0C749C3
:1013F000884202D101218C0423E0C549884202D1F0
:101400000121CC041DE0C349884202D101210C0511
:1014100017E0C149884209D101212020FFF71BFFB5
:1014200000212020BDE81040FFF715BFBB498842CE
:1014300002D101218C0704E0B94988420AD1012177
:1014400044052046FFF7FDFE2046BDE81040002180
:10145000FFF7F7BE10BD7FB50446008A0D4620F4A5
:101460004051E88808432082A08941F20C618843FA
:10147000A9882A8911436A8902431143A181A08A5C
:1014800020F44071A8890843A0826846FFF7F4FD64
:101490009C48844202D0A048844201D1039800E0D5
:1014A0000298A189090400EBC00101EB0010296832
:1014B00001D5490000E08900B0FBF1F26420B2FBE5
:1014C000F0F109010B096FF018056B4302EB830281
:1014D000A3891D044FF0320306D503EBC202B2FB11
:1014E000F0F000F0070005E003EB0212B2FBF0F0B1
:1014F00000F00F00084320817FBD4FF416510160BA
:1015000000218180C18001810C224281818170474C
:1015100010B5028A4C8822F470630A8822438C88B2
:10152000C9880C4322431A43028210BD0021018066
:1015300041808180C18070470029818902D041F4B7
:10154000005101E021F4005181817047028B02F4C7
:101550007F420283028B0A430283704700298189FC
:1015600002D041F4004101E0C1F30E0181817047D6
:101570000029818A02D041F4006101E021F4006178
:1015800081827047C1F30801818070478088C0F371
:1015900008007047028A22F00F020282028A0A4380
:1015A000028270470029818902D041F0020101E0E6
:1015B00021F0020181817047828922F400628281D8
:1015C00082890A4382817047028A22F020020282C5
:1015D000028A0A43028270470029018A02D041F43C
:1015E000804101E021F4804101827047818941F00E
:1015F0000101818170470029818A02D041F00801F0
:1016000001E021F0080181827047028BD2B202838F
:10161000028B42EA0121018370470029818A02D0AE
:1016200041F0200101E021F0200181827047002972
:10163000818A02D041F0100101E021F01001818285
:101640007047828A22F004028282828A0A4382825E
:1016500070470029818A02D041F0020101E021F0A7
:10166000020181827047002A828A01D00A4300E089
:101670008A438282704710B5C1F3421301F01F0400
:101680000121A140012B07D0022B07D01430002AE2
:10169000026805D00A4304E00C30F8E71030F6E7A2
:1016A0008A43026010BD0246002012880A4200D020
:1016B00001207047C9430180704730B501F01F0217
:1016C00001240025C1F3421304FA02F2012B0FD0CA
:1016D000022B0FD0838A4FEA11210088134204FAAB
:1016E00001F400EA040001D000B10125284630BD14
:1016F0008389F0E7038AEEE70A0A01219140C94392
:101700000180704700100140004400400048004044
:10171000004C0040005000400014014000780040A0
:10172000007C004010B504466FF00400FFF70EF88F
:101730002948E10801EB41020170C2EBC1114FF6EB
:10174000FF7202EAC101418010BD23490978484374
:101750004FF0E021486100228A61086940F00100F1
:1017600008610869C30701D0C003FAD5086920F0F1
:10177000010008618A6170471749498848434FF062
:10178000E021486100228A61086940F00100086197
:101790000869C30701D0C003FAD5086920F0010029
:1017A00008618A61704770B54FF40775B0FBF5F1B9
:1017B000CCB2B0FBF5F105FB110604E02846FFF7BB
:1017C000DBFF641EE4B2002CF8D1002E03D03046BB
:1017D000BDE87040D0E770BD280000207047444944
:1017E0000A885206FCD5C2B28A807047F0B5064618
:1017F000012187B00846FFF7D4FC01211020FFF734
:10180000F8FC3C4F072209213846FFF73AFB072234
:101810000A213846FFF735FB4FF4C06004900220E0
:101820008DF814008DF8150000248DF81640012560
:101830008DF8175004A93846FFF79AFAADF804401E
:10184000ADF80640ADF80840ADF80C400C20284C2F
:10185000ADF80A00009669462046FFF7FCFD01211D
:101860002046FFF769FE40212046FFF723FF0122B3
:1018700040F225512046FFF7FEFE25208DF8180086
:1018800003208DF819008DF81A008DF81B5006A85A
:10189000FEF71BFF07B0F0BD70B5154C40F22551A7
:1018A0002046FFF70AFF00280ED02046FFF76EFE05
:1018B000C2B2114801880B0406D44C044FF0000357
:1018C00006D50A2A01D0038070BD41F400410DE025
:1018D0000D2A09D0C1F30D04084D491C89B22A55BF
:1018E0000180C729EFD870BD41F48041018070BDEF
:1018F00000100140000002402C0000206404002081
:10190000F0B5FF4BFF20FF4D1872002105F5A862CE
:101910009FEDFD1B002005EB811602EB8114B0EE5C
:10192000410AF0EE610A00BF06EBC00787ED000B2D
:1019300004EBC007401CC0B287ED000B0828F3D3AE
:10194000491CC9B21529E5D3F14A002002F1A801CA
:1019500002EBC00484ED000B01EBC004401CC0B2DC
:1019600084ED000B1528F3D31420D8719FEDE90BFB
:1019700082ED000B9FEDE90B82ED280B9FEDE90B4B
:1019800081ED000B9FEDE90B81ED280BF0BD2DE9FA
:10199000F05FDB4A92F90800401CC11700EB51715F
:1019A00021F00701401A44B21472D579D54A0021BA
:1019B00002F5A86012E06B1A02EB831707EBC4066E
:1019C000491C16ED101BC9B286ED001B00EB8316F7
:1019D00006EBC40313ED101B83ED001BA942EAD3F1
:1019E00002EBC401934681ED000B9FEDC70B00EBAA
:1019F000C409002689ED000B82466F1C1EE000BF63
:101A00000BEB861101EBC40090ED000BC04853ECCA
:101A1000102BA83000EBC60090ED001B51EC110B11
:101A200001F0C7F90AEBC40898ED001B53EC112B29
:101A300001F018F9761CF6B2C8E90001BE42DFD306
:101A400001266D1C1DE00AEB861000EBC400574612
:101A500090ED000BAE4853EC102B00EBC60090ED60
:101A6000001B51EC110B01F0A4F907EBC40797ED33
:101A7000001B53EC112B01F099F9761CC7E900010A
:101A8000F6B2AE42DFD399ED000BBDE8F09FF0B5A2
:101A9000A84A4CF250351468002C59DD9849A64FDD
:101AA0008E89761C641EB3B214608E81002607EB0B
:101AB000831700BFB0EC020B07EBC60C761CF6B226
:101AC0008CED000B082EF5D3AC420DDA41F28830D4
:101AD00094FBF0F600FB164030B99848D0F8A462A9
:101AE00046B10026C0F8A4620E7964270120012EB9
:101AF00002D011E00126F5E75E1CB6FBF7FC07FB00
:101B00001C664EB9CE89761CCE81A3F50076C870CE
:101B1000573E01D1761E8E815E1CB6FBF7FC07FB9B
:101B20001C6636B15FF00006B3F5957F03D901233B
:101B300002E00126F8E700231E404B79012B00D07C
:101B400000231E4203D0087100234B71C8705CB1A2
:101B50001068002807DA401C106004D1784800782B
:101B6000012800D11560F0BD7648F8E70107090E9D
:101B700041EA10115520884301F0AA01084370473B
:101B800010B5714C40F225512046FFF796FD002814
:101B900017D02046FFF7FAFCC0B2FFF7E7FF58491D
:101BA00001230C7854B10022012C0BD0022C12D04E
:101BB000032C06D18C7A84421DD00AE0552800D12E
:101BC0000B7010BDAA2804D1022008708A704A81C7
:101BD00010BD0A7010BD4A89574B02444A818A7869
:101BE000503B9854521CD0B288704A789042F1D140
:101BF0000320087010BD8B71EBE72DE9F047DFF88B
:101C000038910024A9F150092DED028B032709F129
:101C100010083B4E40E000BFB4FBF7F007FB10405C
:101C2000F0B3B4FBF7F007FB10400128B4FBF5F06C
:101C300005FB1040B0FBF7F108EB011048D090ED28
:101C4000028B19F8040001F026F953EC182B01F06F
:101C500009F8B4FBF5F205FB1242B2FBF7F308EB0F
:101C60000312C2E90201B4FBF5F005FB1040B0FB22
:101C7000F7F108EB011090ED020BFFF788FE70788A
:101C8000B4FBF0F100FB1140B0FBF7F108EB0110E1
:101C900080ED020B641CE4B27578AC42BCD300E06A
:101CA00006E0BDEC028B2448BDE8F0474038EEE684
:101CB00019F80400000101F0EEF8B4FBF5F205FBA1
:101CC0001242B2FBF7F308EB0312C2E90001E1E7AD
:101CD00090ED008B19F80400000901F0DCF853ECDA
:101CE000182B00F0BFFFB4FBF5F205FB1242B2FB6C
:101CF000F7F308EB0312C2E90001B4FBF5F025E0AD
:101D000034000020809B0020000000000000000044
:101D100000A60020000000000000F03F36A86C3450
:101D2000C0E9E9BF1F54361AE0F4EC3F1F54361ADD
:101D3000E0F4ECBF54000020800500200080424207
:101D400058000020520000200048004005FB1040D1
:101D5000B0FBF7F108EB011090ED000BFFF717FE59
:101D60007578B4FBF5F005FB1040B0FBF7F108EB1C
:101D7000011080ED000B19F804000007000D01F0C0
:101D80008AF8B4FBF5F205FB1242B2FBF7F308EB5D
:101D90000312C2E902017DE72DE9F0412A4E804697
:101DA00088B03046FFF712FB01210220FFF7F9F956
:101DB00001218804FFF713FA02218DF814108DF821
:101DC00015104FF440600024204F04908DF8164009
:101DD00001258DF8175004A93846FEF7C9FF0722E0
:101DE0000B213846FFF74DF807220A213846FFF746
:101DF00048F8ADF808400C20ADF80440ADF80A00F2
:101E0000CDF80080ADF80640ADF80C40694630468C
:101E1000FFF721FB012240F225513046FFF72BFC52
:101E200001213046FFF788FB27208DF818008DF838
:101E3000195003208DF81A008DF81B5006A8FEF7E4
:101E400044FC08B0BDE8F0810048004000040240B6
:101E50002DE9F04F00272DED088B81B09FEDFA8A18
:101E6000DFF8E883FA4D9FEDFBABF848001D002634
:101E7000C15D88F80010F94901EB071484ED008A70
:101E800084ED018A84ED028A84ED038AF448008897
:101E900000EBC00101EB001006EB80004FF416715F
:101EA000431EB0FBF1F293FBF1FC01FB120201FBBC
:101EB0001C330FFA83FB801E90FBF1F301FB130030
:101EC00000B2009098F8009005EB821A0AEBC90066
:101ED00090ED000BB0EE409AF0EE609A01F048F9F8
:101EE000B0EE401AF0EE601AB0EE41BAF0EE61BA10
:101EF000206800F0DDFF53EC1B2B00F0B3FE01F077
:101F000003F82060002E71D005EB8B1B0BEBC90092
:101F100090ED000B51EC190B53EC102B00F049FF26
:101F200053EC1A2B00F0D8FF01D2012000E0002072
:101F300000EE100AD4ED010AB8EE400A30EE200A95
:101F400084ED010A98F800000BEBC00181460AEB12
:101F5000C90091ED009B90ED000B53EC192B51EC57
:101F6000100B00F020FF8B4682464BEC100B01F06B
:101F7000FFF8B0EE40BAF0EE60BAA06800F098FF4B
:101F800053EC1B2B00F06EFE00F0BEFFA060012E94
:101F90002CD9009805EB801101EBC90090ED000BE6
:101FA00051EC190B53EC102B00F0FDFE41EC100B23
:101FB0004BEC11AB53EC102B51EC110B00F0F9FE74
:101FC000B0EE4A1AF0EE6A1A53EC112B00F084FFBF
:101FD00001D2012000E0002000EE100AD4ED030A37
:101FE000B8EE400A30EE200A84ED030A761CB6B241
:101FF000B6F5967FFFF44AAF7F1CBFB2082FFFF4FF
:1020000034AF01B0BDEC088BBDE8F08FF0B5B7EE92
:10201000000A054680ED200A00239FED8B0A9149B6
:1020200001EB83025B1CDBB282ED000A062BF7D3C7
:102030008C4E00241836002301EB840203EB430787
:1020400006EBC70707EB840792ED000A97ED001A2D
:1020500005EB83075B1CD7ED001ADBB2202B01EEEA
:10206000210A82ED000AE9D3641CE4B2062CE2D313
:102070007D4C002301EB830204EB830592ED000A03
:1020800095ED001A5B1CDBB230EE010A062B82EDE7
:10209000000AEFD35FF0000201EB820393ED000A28
:1020A00022B1B4EEE00AF1EE10FA02DDF0EE400AE1
:1020B0001046521CD2B2062AEED3644A5188491CFB
:1020C0005180F0BDF0B5684A0021684C18320020FC
:1020D00004EBC11502EBC11305EB800696ED000A77
:1020E00003EB8006401C00B286ED000A2028F3DBDB
:1020F000491C09B22029EADB5D4D9FED530A0021FE
:10210000202005EB012300BF03EB8004401C00B23C
:1021100084ED000A4028F7DB491C09B22029EFDBD7
:102120000020B7EE000A00BF05EB002101EB8001A3
:10213000401C00B281ED200A2028F5DB00210020A0
:1021400002EBC11305EB012403EB800696ED000AB8
:1021500004EB8006401C00B286ED000A2028F3DB69
:10216000491C09B22029EADB5FF0000005EB0024DE
:1021700004EB8003014693ED000A09E005EB012220
:1021800002EB8002491CD2ED400A09B2C3ED000AFD
:10219000D3ED000AF5EEC00AF1EE10FAEED081425E
:1021A0002ADD05EB012202EB800181ED000A00210E
:1021B0000EE000BF04EB810602EB810796ED000AFA
:1021C000D7ED000A491CC6ED000A87ED000A09B2E6
:1021D0008142EFDB411C0CE002EB810704EB81063E
:1021E000D7ED000A96ED000AC6ED000A87ED000A59
:1021F000491C09B24029EFDB411C09B28E461FE0A1
:1022000005EB012C3F220CEB800715E004EB820666
:1022100097ED000AD6ED000A93ED001A0CEB82064A
:1022200060EE200A521E12B280EE810AD6ED000A3C
:1022300030EEC00A86ED000A8242E7DA491C09B294
:102240002029DDDB3F2121E00000000044000020C8
:1022500080050020000000000000000068A70020AA
:102260004200002020AB002038E2002038B10020DE
:1022700050F2002004EB8102D3ED000A92ED000A37
:10228000491E09B280EE201A82ED001A8142F1DA6D
:102290007046BEF1200FFFF669AF05EB00233F212A
:1022A00003EB8002401E0BE003EB8104D2ED000A39
:1022B00094ED000A491E09B280EE201A84ED001A3E
:1022C0008142F1DA1F2000223F2103E000221BE0BF
:1022D0003F2115E005EB022404EB810304EB8004AD
:1022E00093ED000AD4ED000A05EB002404EB810411
:1022F000491E94ED001A09B200EEC10A83ED000AEE
:102300008142E7DA521C12B28242E1DB401E00B287
:102310000028DBDCF34A0020002102EBC01305EBB0
:10232000002400BF04EB810696ED200A03EB810632
:10233000491C09B286ED000A2029F3DB401C00B2DB
:102340002028E9DBF0BD2DE9F14F00211FED420A05
:10235000E54A01EB4103002002EBC30303EB8004D9
:10236000401C80B284ED000A0628F7D3491C89B2CC
:102370002029EED3DD49002001EB8002401C80B211
:10238000894682ED000AC028F6D3D94A0021A2F579
:102390000053A2F58054002002EBC11604EBC115D6
:1023A00003EBC11707EB800C9A468CED000A06EB95
:1023B000800C93468CED000A05EB800C401C80B22B
:1023C0008CED000A2028EDD3491C89B22029E2D3E4
:1023D000C84A0020A2F1800101EB80038E4683ED04
:1023E000000A02EB8003401C80B283ED000A202823
:1023F000F2D30020BF49803101EB8002401C80B243
:1024000082ED000A0628F5D3BB4BBC48002101EB46
:10241000C10433F81150002204EB4114A618521CD9
:1024200092B220F81650292AF8D3491C89B20A29F9
:10243000EDD3B34D0021B7EE000AB04A002335F8C2
:1024400011609C3A02EB810430F81320B2421BD198
:10245000009F002207EBC31C0CEB820702EB411824
:10246000D7ED000A09EB8807521C97ED001A92B2CB
:10247000202A70EE810AC7ED000AEDD3D4ED000AE0
:1024800070EE800AC4ED000A5B1C9BB24FF4CD785D
:102490004345D9D3491C89B20629CED3974D002193
:1024A0009C3D4C4605EB81030022D3ED000A00BFA2
:1024B00002EB411304EB8303521C93ED001A92B21A
:1024C000202AC1EE201AC3ED001AF1D3491C89B2AB
:1024D0000629E7D300258A48002330F8159087485D
:1024E00030F8131049454FD10098002100EBC3127A
:1024F0004FEA0E0002EB8106D6ED000A01EB45160D
:1025000004EB860696ED001A00EB8106491C70EE7E
:10251000C10A89B22029C6ED000AEBD300225E462B
:1025200000EB82070021D7ED000A06EBC21700BFBF
:1025300000EB810C9CED001A07EB810C491C20EE8E
:10254000811A89B220298CED001AF1D3521C92B263
:10255000202AE5D3002000210BEBC0170AEBC016A0
:1025600006EB810207EB810CD2ED000A9CED001A0C
:10257000491C89B270EE810A2029C2ED000AEFD30E
:10258000401C80B22028E6D35B1C9BB24345A6D3F7
:102590006D1CADB2062D9ED30021DFED5A0A5246C6
:1025A000002002EBC11300BF03EB8005401C95ED3A
:1025B000001A80B22028C1EE201AC5ED001AF3D30C
:1025C000491C89B22029EBD35FF0000002EBC01157
:1025D00001EB8001401CD1ED000A80B2202870EE92
:1025E000800AC1ED000AF1D3FFF76CFD3D4ADFF828
:1025F00018810021002002EBC11308EBC11500BFB8
:1026000003EB800696ED000A05EB8006401C80B2C5
:1026100086ED000A2028F3D3491C89B22029E9D38A
:10262000314B002000EB4001002208EBC01603EB09
:10263000C107002107EB820506EB810C95ED000A2E
:10264000DCED000A01EB421C04EB8C0C491C9CEDF8
:10265000001A89B2202900EE810A85ED000AEBD329
:10266000521C92B2062AE4D3401C80B22028D9D34F
:10267000204A00208032002102EB800501EB410658
:1026800003EBC60606EB800695ED000A96ED001AF0
:1026900001EB401604EB8606491CD6ED000A89B210
:1026A000202900EE810A85ED000AE7D3401C80B2A4
:1026B0000628E0D30020BEEE000A00BF02EB800136
:1026C000401CD1ED000A80B2062860EE800AC1ED00
:1026D000000AF3D30D490020C1F8A8020C49087084
:1026E000BDE8F88F5012012038AB002038AE002032
:1026F00038D10020B8E100205C000020ECA70020C9
:10270000700000200000CA4338C10020008042420F
:10271000510000201CB501211120FEF742FD1C20B4
:10272000009000208DF8040003208DF8050001249E
:102730008DF8074069463548FEF71AFB02208DF8F0
:102740000700009469463248FEF712FB1CBD2DE9D4
:10275000F041304D2E4F2D4C012608B12E7001E076
:102760002878A0B110212046FEF768FBB0B10821FF
:102770002046FEF763FB88B104212046FEF75EFB8E
:1027800060B101213846FEF759FB012806D010211F
:102790002046FEF753FB012824D035E00A20FFF73E
:1027A00002F80020287010212046FEF747FB80B178
:1027B00008212046FEF742FB70B104212046FEF7B7
:1027C0003DFB58B101213846FEF738FB012807D000
:1027D0001AE00120BDE8F0810220FBE70320F9E7C1
:1027E0000420F7E708212046FEF728FB01280BD13B
:1027F00004212046FEF722FB012805D1012138469D
:10280000FEF71CFB00B92E700020E3E70010024029
:10281000000002405000002010B50A20FEF7C3FF60
:1028200001213848FEF70AFB01280AD13649384A07
:102830000870364911603749087037490020C1F8DF
:10284000A402BDE810400120FDF7F9BF10B50A2031
:10285000FEF7A9FF08213148FEF7F0FA50B92A49DE
:1028600001202B4A4870294911602A4908702A49D9
:10287000C1F8A402BDE810400820FDF7E0BFFEB596
:10288000FFF748FF01218803FEF7B3FC0321042072
:10289000FEF770FD00210846FEF76CFD00250124BF
:1028A0008DF8045008268DF8056000948DF80640D8
:1028B0006846FDF76BFF8DF804500C208DF805007D
:1028C00000968DF806406846FDF760FF06208DF8FB
:1028D00008008DF8094002208DF80A008DF80B40A1
:1028E00002A8FDF7F2FE09208DF808008DF80940D6
:1028F00003208DF80A008DF80B4002A8FDF7E5FED5
:10290000FEBD0000000002405100002030F8FFFF33
:102910005400002058000020008042420010024075
:102920007CB501212020FEF73CFC01210420FEF7AC
:1029300038FC01208DF8040000218DF806100321D9
:102940008DF805100C4D4FF4C0648DF8070000940D
:1029500069462846FEF70CFA0E20084E009069469C
:102960003046FEF705FA21462846FEF77BFA0E218F
:102970003046FEF777FA7CBD0014024000080240A2
:102980002DE9F04798B001217A20FEF70AFC0121D9
:102990000846FEF71AFC01258DF8045000244FF478
:1029A00000408DF80640022600908DF805608DF8F5
:1029B00007506946A648FEF7DBF98DF804604FF62C
:1029C00033708DF806400327DFF888A200908DF859
:1029D00005708DF8075069465046FEF7C9F98DF825
:1029E00004604FF683708DF80640DFF86C9200901B
:1029F0008DF805708DF8075069464846FEF7B8F91E
:102A00008DF804604FF23F008DF80640DFF84C82ED
:102A100000908DF805708DF8075069464046FEF726
:102A2000A7F98DF804608DF806408DF805708DF8D3
:102A3000075040F23F408A4D009069462846FEF715
:102A400097F90C2200215046FEF71BFA0C220121B7
:102A50005046FEF716FA0C2204215046FEF711FAF2
:102A60000C2205215046FEF70CFA0C220821504694
:102A7000FEF707FA0C2209215046FEF702FA0C2253
:102A80000A215046FEF7FDF90C220B215046FEF7B5
:102A9000F8F90C2211465046FEF7F3F90C220D21ED
:102AA0005046FEF7EEF90C220E215046FEF7E9F9EA
:102AB0000C220F215046FEF7E4F90C220021484673
:102AC000FEF7DFF90C2201214846FEF7DAF90C2265
:102AD00007214846FEF7D5F90C2208214846FEF7A3
:102AE000D0F90C2209214846FEF7CBF90C220A2125
:102AF0004846FEF7C6F90C220B214846FEF7C1F9FD
:102B00000C2211464846FEF7BCF90C220D2148461E
:102B1000FEF7B7F90C220E214846FEF7B2F90C2257
:102B20000F214846FEF7ADF90C2200214046FEF782
:102B3000A8F90C2201214046FEF7A3F90C2202213C
:102B40004046FEF79EF90C2203214046FEF799F914
:102B50000C2204214046FEF794F90C220521404640
:102B6000FEF78FF90C2211464046FEF78AF90C2237
:102B70000D214046FEF785F90C220E214046FEF756
:102B800080F90C220F214046FEF77BF90C22002130
:102B90002846FEF776F90C2201212846FEF771F946
:102BA0000C2202212846FEF76CF90C22032128464C
:102BB000FEF767F90C2204212846FEF762F90C2281
:102BC00005212846FEF75DF90C220A212846FEF76A
:102BD00058F90820CDE91240119416940420179456
:102BE000CDE9020414941020CDE904401594069414
:102BF0000002CDE90A4011A80994CDE90E400894DD
:102C0000079410900C940D9402A8FDF735FE012155
:102C10000420FDF7AAFE18B0BDE8F08710B5002A21
:102C200008D000BF4FF0D04310F8014B5C54491C52
:102C3000521EF7D110BD002A08D000BF4FF0D0437C
:102C40005B5C491C00F8013B521EF7D17047000045
:102C500000040240000C0240001002400014024038
:102C6000001802402DE9FE4F804681EA0300C00FA4
:102C70000C46009021F0004123F00045B8EB020023
:102C8000A94105D24046214690461C460B460246C5
:102C900023F00040104347D0270DC7F30A00C3F3C9
:102CA0000A510290401A019040286BDAC3F31300D6
:102CB00040F4801B0098924620B10023D2EB030A17
:102CC00063EB0B0B01985946C0F14002504600F0EF
:102CD00068F906460D4650465946019A00F080F9BB
:102CE00010EB08006141002487EA115284EAE7737F
:102CF0001A4340D0009A62B3019A012A4FEA075260
:102D000015DC001B61EB02014FF0004202EA0752A2
:102D1000CDE90042001C41F5801132462B4600F0FF
:102D2000B7F903B0BDE8F08F40462146F9E7001B34
:102D300061EB0201001C41F5801300185B41201873
:102D4000A2F5001747EB030140EAD570B6196D41B3
:102D500011E06D084FEA360645EAC0754FEA0752A2
:102D6000001B61EB0201001C41F5801149084FEA8C
:102D700030000019514132462B4603B0BDE8F04FF8
:102D800000F077B90098012240000023D0EB020246
:102D900063EBE073009821464FEAE074B8EB000063
:102DA00061EB0401E9E783F000435BE781F0004158
:102DB00058E72DE9FE4F81EA030404F0004421F0B6
:102DC000004100944FF0000B23F0004350EA01044F
:102DD0005ED052EA03045BD0C3F30A54C1F30A5530
:102DE0002C44A4F2F3340194A0FB0254C1F3130168
:102DF00041F48011C3F3130343F4801301FB024435
:102E000000FB034E840A970A44EA815447EA835739
:102E1000A4FB076802958D0A05FB07854FEA932CF2
:102E200004FB0C542705029D4FEA065847EA163763
:102E3000B5EB08056EEB070C870E920E47EA81177B
:102E400042EA8312A7FB0201B6EB0B0164EB00041C
:102E50002B0D43EA0C335E1844EB1C50DA46514606
:102E6000E7FB0201C5F313044FEA0B3343EA1453A3
:102E70004FEA0432019C43EA0603A4F10C040294D5
:102E8000009CCDE900B400F003F903B0BDE8F08F79
:102E900000200146F9E70EB540F2334102910021CE
:102EA000CDE900110A460B4600F0F2F803B000BD70
:102EB00000F0004230F000400AD0C10D01F5607111
:102EC000C0F3160042EA0151C2084007114370479F
:102ED000002001467047000030B5041E71F1000467
:102EE00004DB4FF00044404264EB0101141E73F117
:102EF000000405DB1C464FF00043524263EB040321
:102F0000994208BF904230BD01F0004330B421F037
:102F1000004150EA010206D00A0DA2F56072C1F329
:102F20001301002A02DC30BC00207047440F44EA41
:102F3000C104C100E01830BC00EBC25000F062B820
:102F40002DE9F05F0546002092469B4688460646DE
:102F5000814640241BE0284641464746224600F071
:102F60002FF853465A46C01A914110D311461846BD
:102F7000224600F016F82D1A67EB01084F4622464C
:102F80000120002100F00DF817EB00094E41201E32
:102F9000A4F10104DFDC484631462A464346BDE839
:102FA000F09F202A04DB203A00FA02F1002070474B
:102FB0009140C2F1200320FA03F319439040704777
:102FC000202A04DB203A21FA02F00021704721FA7E
:102FD00002F3D040C2F120029140084319467047E5
:102FE000202A06DBCB17203A41FA02F043EAE073CD
:102FF00006E041FA02F3D040C2F1200291400843BA
:10300000194670470029A8BF7047401C490008BFF7
:1030100020F00100704710B4B0FA80FC00FA0CF008
:1030200050EA010404BF10BC704749B1CCF1200440
:1030300021FA04F411FA0CF118BF012121430843CD
:10304000A3EB0C01CB1D4FEA00614FEA102042BFF9
:10305000002010BC704700EBC35010440029A4BFEF
:1030600010BC7047401C490008BF20F0010010BC94
:10307000704710B5141E73F1000408DA401C41F1CA
:10308000000192185B411A4301D120F0010010BDEC
:103090002DE9F04D92469B4611B1B1FA81F202E062
:1030A000B0FA80F220329046FFF77BFF04460F46CD
:1030B00040EA0A0041EA0B0153465A46084313D03E
:1030C000114653EA010019D0C8F140025046FFF7FB
:1030D00077FF05460E46504659464246FFF761FFC8
:1030E000084305D0012004E020463946BDE8F08DB4
:1030F0000020054346EAE0762C4337430A986305EF
:10310000E40AA0EB08000022FD0A44EA47540A3012
:1031100002D500200146E9E7010510196941DDE902
:10312000084500196941BDE8F04DA2E7064C074D7E
:1031300006E0E06840F0010394E807009847103487
:10314000AC42F6D3FDF724F880340008A034000820
:103150000FB4054B10B503A9044A029800F022F8F9
:1031600010BC5DF814FB0000DF17000830000020E1
:103170002DED020B019820F0004001909DED000B19
:1031800002B0704702E008C8121F08C1002AFAD135
:1031900070477047002001E001C1121F002AFBD1D7
:1031A000704700002DE9FF4F8DB09B460F46044647
:1031B000002606E025280BD05A460F999047641C3C
:1031C000761C20780028F5D111B03046BDE8F08F8C
:1031D0000025A8460122984900E0054314F8013F64
:1031E000203B02FA03F00842F7D120782E2817D1AD
:1031F00014F8010F45F004052A280ED06FF02F02B5
:103200002078A0F1300109290AD808EB880102EBE7
:10321000410100EB0108641CF2E757F8048B641CC1
:1032200020786C280DD004DC4C2812D06A2811D1EB
:1032300004E074280DD07A280CD10AE045F400157A
:1032400007E0617845F48015814202D1641C05F5E0
:103250008015641C2278692A45D008DC002AB3D086
:10326000582A69D0632A10D0642A08D13BE0702A1A
:1032700067D0732A13D0752A5CD0782A5CD01046A8
:103280005A460F999047761CD3E017F8040B8DF837
:10329000000000208DF80100E946012003E057F806
:1032A000049B4FF0FF3069074FF0000501D40AE09E
:1032B0006D1C45450DDA8542FADB19F80510002929
:1032C000F6D106E06D1C8542FCDB19F805100029DB
:1032D000F8D12E4404E019F8010B5A460F99904793
:1032E0006D1EF8D2A5E00A200021CDE90801C5F342
:1032F000025002280DD001CFC117031E71F1000347
:103300000DDA4FF0000CD0EB0C006CEB01012D231B
:1033100008E0FF1D27F00707F7E80201EDE72B059E
:1033200004D52B238DF8283001233BE0EB0739D05F
:103330002023F7E70A2000E010200021CDE9080152
:1033400007E01020002145F00405CDE908014FF009
:103350000808C5F3025002280FD001CF00214FF01A
:10336000000A2B071FD5702A0DD0DDE908C38CF0A9
:10337000100C5CEA030C0CD015E0FF1D27F00707CA
:10338000F7E80201EBE740228DF828204FF0010A10
:103390000BE050EA010306D030238DF828308DF879
:1033A000292002239A46582A04D024A20DF120098C
:1033B0000B9209E026A2F9E7DDE90823FFF7C0FD3B
:1033C0000B9B9B5C09F8013D50EA0102F4D1ADEB87
:1033D000090020300890680701D44FF001080899CF
:1033E000884502DDA8EB010000E0002080460025B2
:1033F00006E00AA85A46405D0F9990476D1C761C5E
:103400005545F6DB04E030205A460F999047761C6C
:10341000B8F10001A8F10108F5DC05E019F8010B8D
:103420005A460F999047761C0899481E0890002923
:10343000F4DC641CC5E60000092801003031323399
:1034400034353637383961626364656600000000E0
:1034500030313233343536373839414243444546CA
:10346000000000000F0000000F000000FF0000003F
:103470000F0000000F0000000F000000000000001F
:10348000A0340008000000207C0000008431000807
:103490001C3500087C000020D4F60100943100089F
:1034A00000000000007A030A000000000000000095
:1034B00001020304060708090000000001020304DA
:1034C00001020304060708090000000000000000D4
:1034D00000000000000C00000001000000000000DF
:1034E000FFFF0000000000000001020304050607C2
:1034F00001000000FFFFFFFF0000000000000500CA
:10350000010005000200050003000500040005009D
:0C351000000001000200030004000500A0
:040000050800018965
:00000001FF
